:020000040000FA
:10000000B0020020190300002103000023030000B8
:100010002503000027030000290300000000000062
:100020000000000000000000000000002B030000A2
:100030002D030000000000002F030000310300002A
:1000400033030000350300003703000039030000CC
:100050003B0300003D0300003F030000410300009C
:10006000430300004503000047030000490300006C
:100070004B0300004D0300004F030000510300003C
:100080005303000055030000570300002D1B000020
:100090005B0300005D0300005F03000061030000DC
:1000A00063030000650300006703000069030000AC
:1000B0006B0300006D0300006F030000710300007C
:1000C000730300007503000077030000790300004C
:1000D0007B0300007D0300007F030000810300001C
:1000E0008303000085030000000000008703000078
:1000F000890300008B0300008D0300008F030000C4
:100100009103000093030000950300009703000093
:100110000000000000000000990300009B030000A5
:100120009D0300009F030000A1030000A303000043
:10013000A5030000A7030000A9030000AB03000013
:1001400000000000000000000000000000000000AF
:10015000AD030000AF030000B1030000B3030000D3
:10016000000000000000000000000000000000008F
:10017000000000000000000000000000000000007F
:10018000000000000000000000000000000000006F
:10019000000000000000000000000000000000005F
:1001A000000000000000000000000000000000004F
:1001B000B5030000B7030000B9030000BB03000053
:1001C000BD030000BF030000C1030000C303000023
:1001D000C5030000C7030000C9030000CB030000F3
:1001E000CD030000CF030000D10300000000000099
:1001F00000000000D3030000D5030000D703000077
:10020000D9030000DB030000000000000000000034
:10021000DD030000DF030000E1030000E303000052
:10022000E5030000E7030000E9030000EB03000022
:10023000ED030000EF030000F1030000F3030000F2
:10024000F5030000F7030000F9030000FB030000C2
:10025000FD030000FF030000010400000304000090
:1002600005040000070400000904000000F002F883
:1002700000F040F80AA090E8000C82448344AAF100
:100280000107DA4501D100F035F8AFF2090EBAE8FE
:100290000F0013F0010F18BFFB1A43F001031847BA
:1002A000041A0000241A0000103A24BF78C878C14C
:1002B000FAD8520724BF30C830C144BF04680C606C
:1002C000704700000023002400250026103A28BFB4
:1002D00078C1FBD8520728BF30C148BF0B607047B8
:1002E0001FB501F0D2FC0FBC00F014F80FB41FBD15
:1002F00010B510BD00F09DF81146FFF7F1FF01F0B9
:1003000045FC00F0BBF803B4FFF7F2FF03BC00F0BC
:10031000C3F8000000F0D7B83F4880473F48004787
:10032000FEE7FEE7FEE7FEE7FEE7FEE7FEE7FEE7A5
:10033000FEE7FEE7FEE7FEE7FEE7FEE7FEE7FEE795
:10034000FEE7FEE7FEE7FEE7FEE7FEE7FEE7FEE785
:10035000FEE7FEE7FEE7FEE7FEE7FEE7FEE7FEE775
:10036000FEE7FEE7FEE7FEE7FEE7FEE7FEE7FEE765
:10037000FEE7FEE7FEE7FEE7FEE7FEE7FEE7FEE755
:10038000FEE7FEE7FEE7FEE7FEE7FEE7FEE7FEE745
:10039000FEE7FEE7FEE7FEE7FEE7FEE7FEE7FEE735
:1003A000FEE7FEE7FEE7FEE7FEE7FEE7FEE7FEE725
:1003B000FEE7FEE7FEE7FEE7FEE7FEE7FEE7FEE715
:1003C000FEE7FEE7FEE7FEE7FEE7FEE7FEE7FEE705
:1003D000FEE7FEE7FEE7FEE7FEE7FEE7FEE7FEE7F5
:1003E000FEE7FEE7FEE7FEE7FEE7FEE7FEE7FEE7E5
:1003F000FEE7FEE7FEE7FEE7FEE7FEE7FEE7FEE7D5
:10040000FEE7FEE7FEE7FEE7FEE7000004480549D9
:10041000034A054B70470000DD1A00006D02000022
:10042000B0000020B0020020B000002070477047EC
:100430007047754600F02CF8AE46050069465346F5
:1004400020F00700854618B020B5FFF7DFFFBDE8B4
:1004500020404FF000064FF000074FF000084FF02B
:10046000000BAC46ACE8C009ACE8C009ACE8C00978
:10047000ACE8C00921F007018D46704710B504466D
:10048000AFF300802046BDE81040FFF73CBF0000FE
:10049000004870471800002001491820ABBEFEE755
:1004A000260002000246C91C21F00301D2E9000324
:1004B0001B1A8B4201D2002070470144C91D21F054
:1004C0000701116070472DE9F34F83B000274FF407
:1004D0008074BA4603A821468DF80070FFF7E2FF4A
:1004E0005FEA000801D100F083F82146404600F0A1
:1004F00070F8060009D04FF0010B4546C14616F8CA
:10050000014B8FB15C2C16D01CE008F1080041466D
:10051000C8F800000020C8F80400D8F80040207097
:10052000012005B0BDE8F08F222C01D0272C0FD17F
:100530002746BA462CE03078222807D05C2805D020
:10054000272803D0BC4203D1002721E0761C0446B3
:100550004CB12FB9202C06D0A4F10900042802D9EF
:1005600005F8014BCBE74D4502D1BAF1000F0FD092
:1005700052464946002005F8010B6846AFF300805B
:100580009DF8000070B14D464FF0000A0BF1010BD1
:10059000002CB4D14FEA8B0103A8FFF783FF0400BE
:1005A00002D004E0A946EFE7002000F021F8002087
:1005B0004246C4F8008005E012F8011B11B9401C46
:1005C00044F82020AA42F7D3002144F82010214605
:1005D000A7E71CB50446CDE9000169461520ABBE6E
:1005E00008B100201CBD20461CBD704770477047F5
:1005F00010B500F009F8BDE81040AFF30080002806
:1006000001D0FFF749BF704710B5012805D0002180
:1006100003A000F021F8012010BD09A1F8E70000B7
:1006200053494752544D454D3A204F7574206F66DB
:100630002068656170206D656D6F72790000000043
:100640003A2048656170206D656D6F727920636F27
:10065000727275707465640070B505460C460A20A8
:1006600000E06D1C00F011F835B128780028F8D1B1
:1006700002E0641C00F009F814B120780028F8D1D9
:10068000BDE870400A20AFF3008008B569468DF8D8
:1006900000000320ABBE08BD85B00A4603468DF8B6
:1006A00013008DF812109DF813000230012101FA99
:1006B00000F003909DF8120001460528009100F219
:1006C00075810099DFE811F006003B007300AB0074
:1006D000E3001B01039800F1402002904EF20860F5
:1006E000C4F20F00016841F0010101609DF81300A0
:1006F000012101FA00F044F21C52C4F20002136816
:10070000184310609DF8130001FA00F044F2004114
:10071000C4F200010A6822EA00000860029800683A
:100720009DF81310C840012804D1FFE701208DF87F
:10073000110003E000208DF81100FFE736E1039877
:1007400045F20001C4F20001084402904EF2086034
:10075000C4F20F00016841F0020101609DF813002E
:10076000012101FA00F045F21C52C4F200021368A4
:10077000184310609DF8130001FA00F045F20041A3
:10078000C4F200010A6822EA0000086002980068CA
:100790009DF81310C840012804D1FFE701208DF80F
:1007A000110003E000208DF81100FFE7FEE0039840
:1007B00046F20001C4F20001084402904EF20860C3
:1007C000C4F20F00016841F0040101609DF81300BC
:1007D000012101FA00F046F21C52C4F20002136833
:1007E000184310609DF8130001FA00F046F2004132
:1007F000C4F200010A6822EA00000860029800685A
:100800009DF81310C840012804D1FFE701208DF89E
:10081000110003E000208DF81100FFE7C6E0039807
:1008200047F20001C4F20001084402904EF2086051
:10083000C4F20F00016841F0080101609DF8130047
:10084000012101FA00F047F21C52C4F200021368C1
:10085000184310609DF8130001FA00F047F20041C0
:10086000C4F200010A6822EA0000086002980068E9
:100870009DF81310C840012804D1FFE701208DF82E
:10088000110003E000208DF81100FFE78EE00398CF
:1008900044F20001C4F20201084402904EF20860E2
:1008A000C4F20F00016841F0100101609DF81300CF
:1008B000012101FA00F044F21C52C4F20202136852
:1008C000184310609DF8130001FA00F044F2004153
:1008D000C4F202010A6822EA000008600298006877
:1008E0009DF81310C840012804D1FFE701208DF8BE
:1008F000110003E000208DF81100FFE756E0039897
:1009000045F20001C4F20201084402904EF2086070
:10091000C4F20F00016841F02001016045F220504F
:10092000C4F2020044F24B31C4F64F41016045F27B
:100930002450C4F20200FF21016000208DF807005E
:10094000FFE79DF80700092807DCFFE7FFE79DF8B0
:10095000070001308DF80700F3E79DF8130001212F
:1009600001FA00F045F21C52C4F202021368184367
:1009700010609DF8130001FA00F045F20041C4F246
:1009800002010A6822EA00000860029800689DF8E7
:100990001310C840012804D1FFE701208DF8110091
:1009A00003E000208DF81100FFE7FFE79DF811003C
:1009B00005B0704782B00A4603468DF807008DF8EF
:1009C00006109DF8070001460528009100F21A81E3
:1009D0000099DFE801F0032A51789FC64EF20860C3
:1009E000C4F20F00016841F00101016044F21C50A3
:1009F000C4F20000FF21016044F20040C4F2000094
:100A000001609DF80600012807D1FFE744F2FC30A1
:100A1000C4F20000FF21016006E044F2FC30C4F2A1
:100A2000000000210160FFE7ECE04EF20860C4F234
:100A30000F00016841F00201016045F21C50C4F250
:100A40000000FF21016045F20040C4F20000016097
:100A50009DF80600012807D1FFE745F2FC30C4F2FB
:100A60000000FF21016006E045F2FC30C4F2000006
:100A700000210160FFE7C5E04EF20860C4F20F00FC
:100A8000016841F00401016046F21C50C4F200000C
:100A9000FF21016046F20040C4F2000001609DF8B1
:100AA0000600012807D1FFE746F2FC30C4F200003F
:100AB000FF21016006E046F2FC30C4F20000002194
:100AC0000160FFE79EE04EF20860C4F20F0001688B
:100AD00041F00801016047F21C50C4F20000FF2100
:100AE000016047F20040C4F2000001609DF806007A
:100AF000012807D1FFE747F2FC30C4F20000FF21D4
:100B0000016006E047F2FC30C4F200000021016001
:100B1000FFE777E04EF20860C4F20F00016841F091
:100B20001001016044F21C50C4F20200FF21016078
:100B300044F20040C4F2020001609DF80600012862
:100B400007D1FFE744F2FC30C4F20200FF2101604C
:100B500006E044F2FC30C4F2020000210160FFE72D
:100B600050E04EF20860C4F20F00016841F020012D
:100B7000016045F22050C4F2020044F24B31C4F649
:100B80004F41016045F22450C4F20200FF21016090
:100B900000208DF80500FFE79DF80500092807DC17
:100BA000FFE7FFE79DF8050001308DF80500F3E74A
:100BB00045F21C50C4F20200FF21016045F20040E2
:100BC000C4F20200016841F002010160016841F0D5
:100BD00004010160016841F0080101609DF8060010
:100BE000012807D1FFE745F2FC30C4F20200FF21E3
:100BF000016006E045F2FC30C4F202000021016011
:100C0000FFE7FFE702B0704783B002468DF80B00A4
:100C100001914EF20460C4F20F00016841F001013D
:100C200001600C20C4F20300002101600020C4F226
:100C30000300016001989DF80B1000EB0110007A91
:100C4000012806D1FFE70420C4F20300012101605E
:100C500005E00420C4F2030002210160FFE7242024
:100C6000C4F20300016841F00101016001989DF8A0
:100C70000B1000EB011040781021B1FBF0F08DF863
:100C800003009DF803003821C4F2030108600198B5
:100C90009DF80B1000EB0110C06800280CD0FFE796
:100CA00001989DF80B1000EB0110C06840F278012C
:100CB000C2F200010860FFE703B0704783B002464C
:100CC0008DF80B0001914EF26500C4F20F0001682F
:100CD00041F00101016041F20C00C4F20300002167
:100CE000016041F20000C4F2030004210160019898
:100CF0009DF80B1000EB0110007A012807D1FFE7E7
:100D000041F20400C4F203000121016006E041F257
:100D10000400C4F2030002210160FFE741F2240055
:100D2000C4F20300016841F00101016001989DF8DF
:100D30000B1000EB011040781021B1FBF0F0ADF882
:100D40000200BDF8020041F23801C4F2030108605C
:100D500001989DF80B1000EB0110C06800280CD022
:100D6000FFE701989DF80B1000EB0110C06840F2FE
:100D70007801C2F200018862FFE703B0704700000B
:100D800083B002468DF80B0001914EF26500C4F26B
:100D90000F00016841F00101016041F20C00C4F252
:100DA00003000021016041F20000C4F203000421AD
:100DB000016001989DF80B1000EB0110007A0128EA
:100DC00007D1FFE741F20400C4F2030001210160F2
:100DD00006E041F20400C4F2030002210160FFE7D3
:100DE00041F22400C4F20300016841F001010160F6
:100DF00001989DF80B1000EB011040781021B1FB19
:100E0000F0F0ADF80200BDF8020041F23801C4F282
:100E10000301086001989DF80B1000EB0110C068F9
:100E200000280CD0FFE701989DF80B1000EB011093
:100E3000C06840F27801C2F20001C862FFE703B067
:100E40007047000083B002468DF80B0001914EF20E
:100E50000460C4F20F00016841F00101016041F239
:100E60000C00C4F203000021016041F20000C4F252
:100E700003000421016001989DF80B1000EB0110A4
:100E8000007A012807D1FFE741F20400C4F2030011
:100E90000121016006E041F20400C4F203000221D6
:100EA0000160FFE741F22400C4F20300016841F051
:100EB0000101016001989DF80B1000EB01104078D2
:100EC0001021B1FBF0F08DF803009DF8030041F212
:100ED0003801C4F20301086001989DF80B1000EB83
:100EE0000110C06800280CD0FFE701989DF80B1096
:100EF00000EB0110C06840F27801C2F200014860C6
:100F0000FFE703B07047000083B002468DF80B0086
:100F100001914EF20460C4F20F00016841F001013A
:100F2000016041F20C00C4F203000021016041F2B3
:100F30000000C4F203000421016001989DF80B1029
:100F400000EB0110007A012807D1FFE741F204000D
:100F5000C4F203000121016006E041F20400C4F282
:100F6000030002210160FFE741F22400C4F2030004
:100F7000016841F00101016001989DF80B1000EB40
:100F8000011040781021B1FBF0F08DF803009DF8BE
:100F9000030041F23801C4F20301086001989DF892
:100FA0000B1000EB0110C06800280CD0FFE701987F
:100FB0009DF80B1000EB0110C06840F27801C2F2FE
:100FC00000018860FFE703B07047000083B002466D
:100FD0008DF80B0001914EF20460C4F20F0001681D
:100FE00041F00101016041F20C00C4F20300002154
:100FF000016041F20000C4F2030004210160019885
:101000009DF80B1000EB0110007A012807D1FFE7D3
:1010100041F20400C4F203000121016006E041F244
:101020000400C4F2030002210160FFE741F2240042
:10103000C4F20300016841F00101016001989DF8CC
:101040000B1000EB011040781021B1FBF0F08DF88F
:1010500003009DF8030041F23801C4F20301086067
:1010600001989DF80B1000EB0110C06800280CD00F
:10107000FFE701989DF80B1000EB0110C06840F2EB
:101080007801C2F20001C860FFE703B070470000BA
:1010900083B002468DF80B0001914EF20460C4F259
:1010A0000F00016841F00101016041F20C00C4F23F
:1010B00003000021016041F20000C4F2030004219A
:1010C000016001989DF80B1000EB0110007A0128D7
:1010D00007D1FFE741F20400C4F2030001210160DF
:1010E00006E041F20400C4F2030002210160FFE7C0
:1010F00041F22400C4F20300016841F001010160E3
:1011000001989DF80B1000EB011040781021B1FB05
:10111000F0F08DF803009DF8030041F23801C4F2AD
:101120000301086001989DF80B1000EB0110C068E6
:1011300000280CD0FFE701989DF80B1000EB011080
:10114000C06840F27801C2F200010861FFE703B015
:101150007047000083B002468DF80B0001914EF2FB
:101160000460C4F20F00016841F00101016041F226
:101170000C00C4F203000021016041F20000C4F23F
:1011800003000421016001989DF80B1000EB011091
:10119000007A012807D1FFE741F20400C4F20300FE
:1011A0000121016006E041F20400C4F203000221C3
:1011B0000160FFE741F22400C4F20300016841F03E
:1011C0000101016001989DF80B1000EB01104078BF
:1011D0001021B1FBF0F08DF803009DF8030041F2FF
:1011E0003801C4F20301086001989DF80B1000EB70
:1011F0000110C06800280CD0FFE701989DF80B1083
:1012000000EB0110C06840F27801C2F200014861B1
:10121000FFE703B07047000083B002468DF80B0073
:1012200001914EF26500C4F20F00016841F0010126
:10123000016041F20C00C4F203000021016041F2A0
:101240000000C4F203000421016001989DF80B1016
:1012500000EB0110007A012807D1FFE741F20400FA
:10126000C4F203000121016006E041F20400C4F26F
:10127000030002210160FFE741F22400C4F20300F1
:10128000016841F00101016001989DF80B1000EB2D
:10129000011040781021B1FBF0F0ADF80200BDF86C
:1012A000020041F23801C4F20301086001989DF880
:1012B0000B1000EB0110C06800280CD0FFE701986C
:1012C0009DF80B1000EB0110C06840F27801C2F2EB
:1012D00000018861FFE703B07047000083B0024659
:1012E0008DF80B0001914EF26500C4F20F00016809
:1012F00041F00101016041F20C00C4F20300002141
:10130000016041F20000C4F2030004210160019871
:101310009DF80B1000EB0110007A012807D1FFE7C0
:1013200041F20400C4F203000121016006E041F231
:101330000400C4F2030002210160FFE741F224002F
:10134000C4F20300016841F00101016001989DF8B9
:101350000B1000EB011040781021B1FBF0F0ADF85C
:101360000200BDF8020041F23801C4F20301086036
:1013700001989DF80B1000EB0110C06800280CD0FC
:10138000FFE701989DF80B1000EB0110C06840F2D8
:101390007801C2F20001C861FFE703B070470000A6
:1013A00083B002468DF80B0001914EF26500C4F245
:1013B0000F00016841F00101016041F20C00C4F22C
:1013C00003000021016041F20000C4F20300042187
:1013D000016001989DF80B1000EB0110007A0128C4
:1013E00007D1FFE741F20400C4F2030001210160CC
:1013F00006E041F20400C4F2030002210160FFE7AD
:1014000041F22400C4F20300016841F001010160CF
:1014100001989DF80B1000EB011040781021B1FBF2
:10142000F0F0ADF80200BDF8020041F23801C4F25C
:101430000301086001989DF80B1000EB0110C068D3
:1014400000280CD0FFE701989DF80B1000EB01106D
:10145000C06840F27801C2F200010862FFE703B001
:101460007047000083B002468DF80B0001914EF2E8
:101470006500C4F20F00016841F00101016041F212
:101480000C00C4F203000021016041F20000C4F22C
:1014900003000421016001989DF80B1000EB01107E
:1014A000007A012807D1FFE741F20400C4F20300EB
:1014B0000121016006E041F20400C4F203000221B0
:1014C0000160FFE741F22400C4F20300016841F02B
:1014D0000101016001989DF80B1000EB01104078AC
:1014E0001021B1FBF0F0ADF80200BDF8020041F2AE
:1014F0003801C4F20301086001989DF80B1000EB5D
:101500000110C06800280CD0FFE701989DF80B106F
:1015100000EB0110C06840F27801C2F2000148629D
:10152000FFE703B07047000082B001468DF8070066
:101530009DF8070002460B2800925BD80099DFE86F
:1015400001F0060C131A21282F363D444B52182067
:10155000C4F20300012101604CE041F21800C4F222
:1015600003000121016045E041F21800C4F20300CC
:10157000012101603EE041F21800C4F203000121A4
:10158000016037E041F21800C4F20300012101605C
:1015900030E041F21800C4F203000121016029E0AB
:1015A00041F21800C4F203000121016022E041F27F
:1015B0001800C4F20300012101601BE041F2180091
:1015C000C4F203000121016014E041F21800C4F2EA
:1015D0000300012101600DE041F21800C4F2030094
:1015E0000121016006E041F21800C4F2030001216C
:1015F0000160FFE702B0704780B584B0039000201F
:101600008DF80B00FFE79DF80B00002861DCFFE779
:1016100003989DF80B100901405C01460B280191CD
:1016200050D80199DFE801F0060C12181E242A3068
:10163000363C42489DF80B000399FFF7E5FA41E07C
:101640009DF80B000399FFF7FDFB3BE09DF80B00B5
:101650000399FFF759FC35E09DF80B000399FFF75C
:10166000B5FC2FE09DF80B000399FFF711FD29E071
:101670009DF80B000399FFF76DFD23E09DF80B002B
:101680000399FFF7C9FD1DE09DF80B000399FFF7D3
:1016900025FE17E09DF80B000399FFF781FE11E08E
:1016A0009DF80B000399FFF7DDFE0BE09DF80B00A2
:1016B0000399FFF703FB05E09DF80B000399FFF783
:1016C0005FFBFFE7FFE79DF80B0001308DF80B0093
:1016D00099E704B080BD000083B002468DF80B008E
:1016E00001919DF80B0001460B28009100F2A380A8
:1016F0000099DFE801F006111E2B3845525F6C7926
:10170000869301982821C4F2030108600C20C4F2DA
:101710000300012101608EE0019841F22801C4F22A
:101720000301086041F20C00C4F2030001210160D2
:1017300081E0019841F22801C4F20301086041F2FE
:101740000C00C4F203000121016074E0019841F231
:101750002801C4F20301086041F20C00C4F2030046
:101760000121016067E0019841F22801C4F2030100
:10177000086041F20C00C4F20300012101605AE04C
:10178000019841F22801C4F20301086041F20C0003
:10179000C4F20300012101604DE0019841F22801EB
:1017A000C4F20301086041F20C00C4F203000121FD
:1017B000016040E0019841F22801C4F20301086091
:1017C00041F20C00C4F203000121016033E00198F2
:1017D00041F22801C4F20301086041F20C00C4F296
:1017E00003000121016026E0019841F22801C4F2C2
:1017F0000301086041F20C00C4F203000121016002
:1018000019E0019841F22801C4F20301086041F295
:101810000C00C4F20300012101600CE0019841F2C8
:101820002801C4F20301086041F20C00C4F2030075
:1018300001210160FFE703B07047000082B001465C
:101840008DF807009DF8070002460B2800925BD830
:101850000099DFE801F0060C131A21282F363D44C9
:101860004B520C20C4F20300002101604CE041F215
:101870000C00C4F203000021016045E041F20C00BD
:10188000C4F20300002101603EE041F20C00C4F20A
:1018900003000021016037E041F20C00C4F20300B4
:1018A0000021016030E041F20C00C4F2030000218D
:1018B000016029E041F20C00C4F203000021016044
:1018C00022E041F20C00C4F20300002101601BE0A1
:1018D00041F20C00C4F203000021016014E041F267
:1018E0000C00C4F20300002101600DE041F20C0085
:1018F000C4F203000021016006E041F20C00C4F2D2
:10190000030000210160FFE702B0704784B04EF68B
:101910000C50CEF2000040F2FA71016000208DF808
:101920000B00FFE79DF80B00002835DCFFE79DF872
:101930000B0040F20101C2F2000111F810008DF815
:101940000F009DF80B0001EB4000407800909DF8DF
:101950000F0080088DF80E009DF80F0000F00300C6
:10196000C00005308DF80C0000989DF80C108840E0
:10197000019001989DF80E104EF20042CEF2000246
:1019800052F82130184342F82100FFE79DF80B0080
:1019900001308DF80B00C5E700208DF80A00FFE745
:1019A0009DF80A0000282BDCFFE79DF80A0040F2B2
:1019B0000001C2F20001085C8DF80F009DF80F00D5
:1019C00040098DF80D009DF80F0000F01F008DF804
:1019D0000C009DF80C00012101FA00F09DF80D109B
:1019E0004EF20012CEF2000252F82130184342F8B3
:1019F0002100FFE79DF80A0001308DF80A00CFE7CB
:101A000004B0704780B582B00A460346ADF80600C0
:101A1000ADF804109DF8060040F2A801C2F20001E2
:101A200008709DF8040040F2A901C2F2000108709C
:101A300040F20500C2F20000007840F2AC01C2F2B0
:101A40000001097888422BD0FFE740F2AC00C2F2D7
:101A50000000007800280DD1FFE7BDF80410002039
:101A60000090FFF739FE40F20500C2F20000009935
:101A7000017014E040F2AC00C2F2000000780128CE
:101A80000CD1FFE7BDF806100020FFF725FE40F25D
:101A90000500C2F2000001210170FFE7FFE7FFE748
:101AA00002B080BD80B582B001468DF807009DF878
:101AB0000700002200911146FEF77CFF02B080BDB6
:101AC00080B582B001468DF807009DF8070001221D
:101AD00000911146FEF76EFF02B080BD4EF68850B1
:101AE000CEF20000016841F470010160704700000F
:101AF0004EF26000C4F20F00016821F01001016095
:101B0000016841F001010160016841F4E071016088
:101B1000016841F080710160016821F40061016099
:101B2000016821F4005101607047000080B540F267
:101B30007800C2F20000006880472420C4F203004D
:101B40000121016080BD000080B50020FFF776FE16
:101B500040F2AC00C2F20000007800280AD1FFE792
:101B60000520FFF7ADFF40F2AC00C2F200000121FA
:101B7000017009E00520FFF795FF40F2AC00C2F2CA
:101B8000000000210170FFE780BD000080B584B037
:101B9000002003900290FFF7ABFFFFF7B7FE40F283
:101BA0000800C2F20000FFF727FD0298FFF7BCFC17
:101BB000FFE7042005210191FEF76EFD40F2AA0126
:101BC000C2F2000108700020019A00911146FEF750
:101BD00063FD40F2AB01C2F20001087040F2030065
:101BE000C2F20000007800990A78904219D0FFE70D
:101BF00040F20700C2F2000001780131017040F2AA
:101C00000600C2F2000001780139017040F2AA001A
:101C1000C2F20000007840F20301C2F20001087035
:101C200026E040F20400C2F20000007840F2AB016E
:101C3000C2F200010978884219D0FFE740F207009C
:101C4000C2F2000001780139017040F20600C2F2D0
:101C5000000001780131017040F2AB00C2F20000D7
:101C6000007840F20401C2F200010870FFE7FFE7CC
:101C700040F20700C2F20000007840F20601C2F212
:101C800000010978FFF7BEFE93E7F1EE100A4FF668
:101C9000FF71C0F2C03120EA010040F04070E1EE77
:101CA000100A7047C41C000000000020180000004B
:101CB000A8020000DC1C00001800002098020000B0
:101CC000C40200001313010101010F0A00100000FB
:0C1CD000FFFF000000000000491B0000A6
:0400000500000319DB
:00000001FF
